{
  "contractName": "HelloWorld",
  "abi": [
    {
      "constant": true,
      "inputs": [
        {
          "name": "",
          "type": "address"
        }
      ],
      "name": "balance",
      "outputs": [
        {
          "name": "",
          "type": "uint256"
        }
      ],
      "payable": false,
      "stateMutability": "view",
      "type": "function"
    },
    {
      "inputs": [],
      "payable": false,
      "stateMutability": "nonpayable",
      "type": "constructor"
    },
    {
      "constant": true,
      "inputs": [],
      "name": "getName",
      "outputs": [
        {
          "name": "",
          "type": "string"
        }
      ],
      "payable": false,
      "stateMutability": "view",
      "type": "function"
    },
    {
      "constant": false,
      "inputs": [
        {
          "name": "_name",
          "type": "string"
        }
      ],
      "name": "setName",
      "outputs": [],
      "payable": false,
      "stateMutability": "nonpayable",
      "type": "function"
    }
  ],
  "bytecode": "0x608060405234801561001057600080fd5b506040805190810160405280600581526020017f46696c69700000000000000000000000000000000000000000000000000000008152506000908051906020019061005c9291906100a8565b506103e8600160003373ffffffffffffffffffffffffffffffffffffffff1673ffffffffffffffffffffffffffffffffffffffff1681526020019081526020016000208190555061014d565b828054600181600116156101000203166002900490600052602060002090601f016020900481019282601f106100e957805160ff1916838001178555610117565b82800160010185558215610117579182015b828111156101165782518255916020019190600101906100fb565b5b5090506101249190610128565b5090565b61014a91905b8082111561014657600081600090555060010161012e565b5090565b90565b6103518061015c6000396000f300608060405260043610610057576000357c0100000000000000000000000000000000000000000000000000000000900463ffffffff16806317d7de7c1461005c578063c47f0027146100ec578063e3d670d714610155575b600080fd5b34801561006857600080fd5b506100716101ac565b6040518080602001828103825283818151815260200191508051906020019080838360005b838110156100b1578082015181840152602081019050610096565b50505050905090810190601f1680156100de5780820380516001836020036101000a031916815260200191505b509250505060405180910390f35b3480156100f857600080fd5b50610153600480360381019080803590602001908201803590602001908080601f016020809104026020016040519081016040528093929190818152602001838380828437820191505050505050919291929050505061024e565b005b34801561016157600080fd5b50610196600480360381019080803573ffffffffffffffffffffffffffffffffffffffff169060200190929190505050610268565b6040518082815260200191505060405180910390f35b606060008054600181600116156101000203166002900480601f0160208091040260200160405190810160405280929190818152602001828054600181600116156101000203166002900480156102445780601f1061021957610100808354040283529160200191610244565b820191906000526020600020905b81548152906001019060200180831161022757829003601f168201915b5050505050905090565b8060009080519060200190610264929190610280565b5050565b60016020528060005260406000206000915090505481565b828054600181600116156101000203166002900490600052602060002090601f016020900481019282601f106102c157805160ff19168380011785556102ef565b828001600101855582156102ef579182015b828111156102ee5782518255916020019190600101906102d3565b5b5090506102fc9190610300565b5090565b61032291905b8082111561031e576000816000905550600101610306565b5090565b905600a165627a7a7230582031d56d3acf4eb462b0dd5f1f5992d16375942361ca9c929c81bd268be222f3210029",
  "source": "pragma solidity^0.4.24;\n\ncontract HelloWorld {\n\n  string private name;\n  mapping (address => uint256) public balance;\n\n  constructor() public {\n    name = \"Filip\";\n    balance[msg.sender] = 1000;\n  }\n\n  function getName() public view returns (string) {\n    return name;\n  }\n\n  function setName(string _name) public {\n    name = _name;\n  }\n}\n",
  "sourcePath": "/Users/admin/Documents/truffle-part3/contracts/hello.sol",
  "compiler": {
    "name": "solc",
    "version": "0.4.24+commit.e67f0147.Emscripten.clang"
  },
  "schemaVersion": "2.0.1",
  "updatedAt": "2018-11-10T15:29:38.276Z"
}